{
  "_format": "hh-sol-artifact-1",
  "contractName": "Alien888Item",
  "sourceName": "contracts/Alien888Item.sol",
  "abi": [
    {
      "inputs": [
        {
          "internalType": "string",
          "name": "_baseURI",
          "type": "string"
        }
      ],
      "stateMutability": "nonpayable",
      "type": "constructor"
    },
    {
      "inputs": [
        {
          "internalType": "uint256",
          "name": "supply",
          "type": "uint256"
        }
      ],
      "name": "ERR_COPIES_PER_TOKEN_MAX_SUPPLY",
      "type": "error"
    },
    {
      "anonymous": false,
      "inputs": [
        {
          "indexed": true,
          "internalType": "address",
          "name": "account",
          "type": "address"
        },
        {
          "indexed": true,
          "internalType": "address",
          "name": "operator",
          "type": "address"
        },
        {
          "indexed": false,
          "internalType": "bool",
          "name": "approved",
          "type": "bool"
        }
      ],
      "name": "ApprovalForAll",
      "type": "event"
    },
    {
      "anonymous": false,
      "inputs": [
        {
          "indexed": true,
          "internalType": "address",
          "name": "previousOwner",
          "type": "address"
        },
        {
          "indexed": true,
          "internalType": "address",
          "name": "newOwner",
          "type": "address"
        }
      ],
      "name": "OwnershipTransferred",
      "type": "event"
    },
    {
      "anonymous": false,
      "inputs": [
        {
          "indexed": true,
          "internalType": "address",
          "name": "operator",
          "type": "address"
        },
        {
          "indexed": true,
          "internalType": "address",
          "name": "from",
          "type": "address"
        },
        {
          "indexed": true,
          "internalType": "address",
          "name": "to",
          "type": "address"
        },
        {
          "indexed": false,
          "internalType": "uint256[]",
          "name": "ids",
          "type": "uint256[]"
        },
        {
          "indexed": false,
          "internalType": "uint256[]",
          "name": "values",
          "type": "uint256[]"
        }
      ],
      "name": "TransferBatch",
      "type": "event"
    },
    {
      "anonymous": false,
      "inputs": [
        {
          "indexed": true,
          "internalType": "address",
          "name": "operator",
          "type": "address"
        },
        {
          "indexed": true,
          "internalType": "address",
          "name": "from",
          "type": "address"
        },
        {
          "indexed": true,
          "internalType": "address",
          "name": "to",
          "type": "address"
        },
        {
          "indexed": false,
          "internalType": "uint256",
          "name": "id",
          "type": "uint256"
        },
        {
          "indexed": false,
          "internalType": "uint256",
          "name": "value",
          "type": "uint256"
        }
      ],
      "name": "TransferSingle",
      "type": "event"
    },
    {
      "anonymous": false,
      "inputs": [
        {
          "indexed": false,
          "internalType": "string",
          "name": "value",
          "type": "string"
        },
        {
          "indexed": true,
          "internalType": "uint256",
          "name": "id",
          "type": "uint256"
        }
      ],
      "name": "URI",
      "type": "event"
    },
    {
      "inputs": [],
      "name": "TOTAL_SUPPLY",
      "outputs": [
        {
          "internalType": "uint256",
          "name": "",
          "type": "uint256"
        }
      ],
      "stateMutability": "view",
      "type": "function"
    },
    {
      "inputs": [
        {
          "internalType": "uint256",
          "name": "tokenId",
          "type": "uint256"
        },
        {
          "internalType": "address",
          "name": "addr",
          "type": "address"
        }
      ],
      "name": "addIntoWhiteList",
      "outputs": [],
      "stateMutability": "nonpayable",
      "type": "function"
    },
    {
      "inputs": [
        {
          "internalType": "address",
          "name": "account",
          "type": "address"
        },
        {
          "internalType": "uint256",
          "name": "id",
          "type": "uint256"
        }
      ],
      "name": "balanceOf",
      "outputs": [
        {
          "internalType": "uint256",
          "name": "",
          "type": "uint256"
        }
      ],
      "stateMutability": "view",
      "type": "function"
    },
    {
      "inputs": [
        {
          "internalType": "address[]",
          "name": "accounts",
          "type": "address[]"
        },
        {
          "internalType": "uint256[]",
          "name": "ids",
          "type": "uint256[]"
        }
      ],
      "name": "balanceOfBatch",
      "outputs": [
        {
          "internalType": "uint256[]",
          "name": "",
          "type": "uint256[]"
        }
      ],
      "stateMutability": "view",
      "type": "function"
    },
    {
      "inputs": [
        {
          "internalType": "address",
          "name": "acc",
          "type": "address"
        },
        {
          "internalType": "uint256",
          "name": "tokenId",
          "type": "uint256"
        },
        {
          "internalType": "uint256",
          "name": "amount",
          "type": "uint256"
        }
      ],
      "name": "burn",
      "outputs": [],
      "stateMutability": "nonpayable",
      "type": "function"
    },
    {
      "inputs": [],
      "name": "getBaseURI",
      "outputs": [
        {
          "internalType": "string",
          "name": "",
          "type": "string"
        }
      ],
      "stateMutability": "view",
      "type": "function"
    },
    {
      "inputs": [],
      "name": "getMaxCopiesPerAddress",
      "outputs": [
        {
          "internalType": "uint256",
          "name": "",
          "type": "uint256"
        }
      ],
      "stateMutability": "view",
      "type": "function"
    },
    {
      "inputs": [],
      "name": "getMaxCopiesPerToken",
      "outputs": [
        {
          "internalType": "uint256",
          "name": "",
          "type": "uint256"
        }
      ],
      "stateMutability": "view",
      "type": "function"
    },
    {
      "inputs": [
        {
          "internalType": "uint256",
          "name": "tokenId",
          "type": "uint256"
        }
      ],
      "name": "getPrice",
      "outputs": [
        {
          "internalType": "uint256",
          "name": "",
          "type": "uint256"
        }
      ],
      "stateMutability": "view",
      "type": "function"
    },
    {
      "inputs": [
        {
          "internalType": "uint256",
          "name": "tokenId",
          "type": "uint256"
        }
      ],
      "name": "getTotalCopiesMinted",
      "outputs": [
        {
          "internalType": "uint256",
          "name": "",
          "type": "uint256"
        }
      ],
      "stateMutability": "view",
      "type": "function"
    },
    {
      "inputs": [],
      "name": "getTotalUniqueTokensMinted",
      "outputs": [
        {
          "internalType": "uint256",
          "name": "",
          "type": "uint256"
        }
      ],
      "stateMutability": "view",
      "type": "function"
    },
    {
      "inputs": [
        {
          "internalType": "address",
          "name": "account",
          "type": "address"
        },
        {
          "internalType": "address",
          "name": "operator",
          "type": "address"
        }
      ],
      "name": "isApprovedForAll",
      "outputs": [
        {
          "internalType": "bool",
          "name": "",
          "type": "bool"
        }
      ],
      "stateMutability": "view",
      "type": "function"
    },
    {
      "inputs": [
        {
          "internalType": "uint256",
          "name": "tokenId",
          "type": "uint256"
        },
        {
          "internalType": "address",
          "name": "addr",
          "type": "address"
        }
      ],
      "name": "isInWhiteList",
      "outputs": [
        {
          "internalType": "bool",
          "name": "",
          "type": "bool"
        }
      ],
      "stateMutability": "view",
      "type": "function"
    },
    {
      "inputs": [
        {
          "internalType": "uint256",
          "name": "tokenId",
          "type": "uint256"
        },
        {
          "internalType": "uint256",
          "name": "amount",
          "type": "uint256"
        }
      ],
      "name": "mint",
      "outputs": [],
      "stateMutability": "payable",
      "type": "function"
    },
    {
      "inputs": [],
      "name": "owner",
      "outputs": [
        {
          "internalType": "address",
          "name": "",
          "type": "address"
        }
      ],
      "stateMutability": "view",
      "type": "function"
    },
    {
      "inputs": [
        {
          "internalType": "uint256",
          "name": "tokenId",
          "type": "uint256"
        },
        {
          "internalType": "uint256",
          "name": "amount",
          "type": "uint256"
        }
      ],
      "name": "ownerMint",
      "outputs": [],
      "stateMutability": "nonpayable",
      "type": "function"
    },
    {
      "inputs": [
        {
          "internalType": "uint256",
          "name": "tokenId",
          "type": "uint256"
        },
        {
          "internalType": "address",
          "name": "addr",
          "type": "address"
        }
      ],
      "name": "removeFromWhiteList",
      "outputs": [],
      "stateMutability": "nonpayable",
      "type": "function"
    },
    {
      "inputs": [],
      "name": "renounceOwnership",
      "outputs": [],
      "stateMutability": "nonpayable",
      "type": "function"
    },
    {
      "inputs": [
        {
          "internalType": "uint256",
          "name": "tokenId",
          "type": "uint256"
        },
        {
          "internalType": "uint256",
          "name": "salePrice",
          "type": "uint256"
        }
      ],
      "name": "royaltyInfo",
      "outputs": [
        {
          "internalType": "address",
          "name": "",
          "type": "address"
        },
        {
          "internalType": "uint256",
          "name": "",
          "type": "uint256"
        }
      ],
      "stateMutability": "view",
      "type": "function"
    },
    {
      "inputs": [
        {
          "internalType": "address",
          "name": "from",
          "type": "address"
        },
        {
          "internalType": "address",
          "name": "to",
          "type": "address"
        },
        {
          "internalType": "uint256[]",
          "name": "ids",
          "type": "uint256[]"
        },
        {
          "internalType": "uint256[]",
          "name": "amounts",
          "type": "uint256[]"
        },
        {
          "internalType": "bytes",
          "name": "data",
          "type": "bytes"
        }
      ],
      "name": "safeBatchTransferFrom",
      "outputs": [],
      "stateMutability": "nonpayable",
      "type": "function"
    },
    {
      "inputs": [
        {
          "internalType": "address",
          "name": "from",
          "type": "address"
        },
        {
          "internalType": "address",
          "name": "to",
          "type": "address"
        },
        {
          "internalType": "uint256",
          "name": "id",
          "type": "uint256"
        },
        {
          "internalType": "uint256",
          "name": "amount",
          "type": "uint256"
        },
        {
          "internalType": "bytes",
          "name": "data",
          "type": "bytes"
        }
      ],
      "name": "safeTransferFrom",
      "outputs": [],
      "stateMutability": "nonpayable",
      "type": "function"
    },
    {
      "inputs": [
        {
          "internalType": "address",
          "name": "operator",
          "type": "address"
        },
        {
          "internalType": "bool",
          "name": "approved",
          "type": "bool"
        }
      ],
      "name": "setApprovalForAll",
      "outputs": [],
      "stateMutability": "nonpayable",
      "type": "function"
    },
    {
      "inputs": [
        {
          "internalType": "string",
          "name": "newBaseURI",
          "type": "string"
        }
      ],
      "name": "setBaseURI",
      "outputs": [],
      "stateMutability": "nonpayable",
      "type": "function"
    },
    {
      "inputs": [
        {
          "internalType": "uint256",
          "name": "amount",
          "type": "uint256"
        }
      ],
      "name": "setMaxCopiesPerAddress",
      "outputs": [],
      "stateMutability": "nonpayable",
      "type": "function"
    },
    {
      "inputs": [
        {
          "internalType": "uint256",
          "name": "amount",
          "type": "uint256"
        }
      ],
      "name": "setMaxCopiesPerToken",
      "outputs": [],
      "stateMutability": "nonpayable",
      "type": "function"
    },
    {
      "inputs": [
        {
          "internalType": "uint256",
          "name": "tokenId",
          "type": "uint256"
        },
        {
          "internalType": "uint256",
          "name": "newPrice",
          "type": "uint256"
        }
      ],
      "name": "setPrice",
      "outputs": [],
      "stateMutability": "nonpayable",
      "type": "function"
    },
    {
      "inputs": [
        {
          "internalType": "uint256",
          "name": "id",
          "type": "uint256"
        },
        {
          "internalType": "address",
          "name": "receiver",
          "type": "address"
        },
        {
          "internalType": "uint96",
          "name": "feeNumerator",
          "type": "uint96"
        }
      ],
      "name": "setRoyalty",
      "outputs": [],
      "stateMutability": "nonpayable",
      "type": "function"
    },
    {
      "inputs": [
        {
          "internalType": "address",
          "name": "receiver",
          "type": "address"
        },
        {
          "internalType": "uint96",
          "name": "feeNumerator",
          "type": "uint96"
        }
      ],
      "name": "setRoyalty",
      "outputs": [],
      "stateMutability": "nonpayable",
      "type": "function"
    },
    {
      "inputs": [
        {
          "internalType": "bytes4",
          "name": "interfaceId",
          "type": "bytes4"
        }
      ],
      "name": "supportsInterface",
      "outputs": [
        {
          "internalType": "bool",
          "name": "",
          "type": "bool"
        }
      ],
      "stateMutability": "pure",
      "type": "function"
    },
    {
      "inputs": [
        {
          "internalType": "address",
          "name": "newOwner",
          "type": "address"
        }
      ],
      "name": "transferOwnership",
      "outputs": [],
      "stateMutability": "nonpayable",
      "type": "function"
    },
    {
      "inputs": [
        {
          "internalType": "uint256",
          "name": "tokenId",
          "type": "uint256"
        }
      ],
      "name": "uri",
      "outputs": [
        {
          "internalType": "string",
          "name": "",
          "type": "string"
        }
      ],
      "stateMutability": "view",
      "type": "function"
    },
    {
      "inputs": [],
      "name": "withdraw",
      "outputs": [],
      "stateMutability": "nonpayable",
      "type": "function"
    }
  ],
  "bytecode": "0x60806040526064600a556003600c553480156200001b57600080fd5b50604051620056ae380380620056ae833981810160405281019062000041919062000303565b8062000053816200008d60201b60201c565b506200007462000068620000a260201b60201c565b620000aa60201b60201c565b80600690816200008591906200059f565b505062000686565b80600290816200009e91906200059f565b5050565b600033905090565b6000600560009054906101000a900473ffffffffffffffffffffffffffffffffffffffff16905081600560006101000a81548173ffffffffffffffffffffffffffffffffffffffff021916908373ffffffffffffffffffffffffffffffffffffffff1602179055508173ffffffffffffffffffffffffffffffffffffffff168173ffffffffffffffffffffffffffffffffffffffff167f8be0079c531659141344cd1fd0a4f28419497f9722a3daafe3b4186f6b6457e060405160405180910390a35050565b6000604051905090565b600080fd5b600080fd5b600080fd5b600080fd5b6000601f19601f8301169050919050565b7f4e487b7100000000000000000000000000000000000000000000000000000000600052604160045260246000fd5b620001d9826200018e565b810181811067ffffffffffffffff82111715620001fb57620001fa6200019f565b5b80604052505050565b60006200021062000170565b90506200021e8282620001ce565b919050565b600067ffffffffffffffff8211156200024157620002406200019f565b5b6200024c826200018e565b9050602081019050919050565b60005b83811015620002795780820151818401526020810190506200025c565b60008484015250505050565b60006200029c620002968462000223565b62000204565b905082815260208101848484011115620002bb57620002ba62000189565b5b620002c884828562000259565b509392505050565b600082601f830112620002e857620002e762000184565b5b8151620002fa84826020860162000285565b91505092915050565b6000602082840312156200031c576200031b6200017a565b5b600082015167ffffffffffffffff8111156200033d576200033c6200017f565b5b6200034b84828501620002d0565b91505092915050565b600081519050919050565b7f4e487b7100000000000000000000000000000000000000000000000000000000600052602260045260246000fd5b60006002820490506001821680620003a757607f821691505b602082108103620003bd57620003bc6200035f565b5b50919050565b60008190508160005260206000209050919050565b60006020601f8301049050919050565b600082821b905092915050565b600060088302620004277fffffffffffffffffffffffffffffffffffffffffffffffffffffffffffffffff82620003e8565b620004338683620003e8565b95508019841693508086168417925050509392505050565b6000819050919050565b6000819050919050565b6000620004806200047a62000474846200044b565b62000455565b6200044b565b9050919050565b6000819050919050565b6200049c836200045f565b620004b4620004ab8262000487565b848454620003f5565b825550505050565b600090565b620004cb620004bc565b620004d881848462000491565b505050565b5b818110156200050057620004f4600082620004c1565b600181019050620004de565b5050565b601f8211156200054f576200051981620003c3565b6200052484620003d8565b8101602085101562000534578190505b6200054c6200054385620003d8565b830182620004dd565b50505b505050565b600082821c905092915050565b6000620005746000198460080262000554565b1980831691505092915050565b60006200058f838362000561565b9150826002028217905092915050565b620005aa8262000354565b67ffffffffffffffff811115620005c657620005c56200019f565b5b620005d282546200038e565b620005df82828562000504565b600060209050601f83116001811462000617576000841562000602578287015190505b6200060e858262000581565b8655506200067e565b601f1984166200062786620003c3565b60005b8281101562000651578489015182556001820191506020850194506020810190506200062a565b868310156200067157848901516200066d601f89168262000561565b8355505b6001600288020188555050505b505050505050565b61501880620006966000396000f3fe6080604052600436106101e25760003560e01c80638da5cb5b11610102578063db14610b11610095578063f2fde38b11610064578063f2fde38b146106f3578063f5298aca1461071c578063f7d9757714610745578063fea3e6131461076e576101e2565b8063db14610b14610627578063e757223014610650578063e985e9c51461068d578063f242432a146106ca576101e2565b8063a588c386116100d1578063a588c3861461057f578063c7771af0146105a8578063cb54939e146105d3578063d47573d4146105fe576101e2565b80638da5cb5b146104d75780638f2fc60b14610502578063902d55a51461052b578063a22cb46514610556576101e2565b80633cfc60c51161017a5780635d878b4f116101495780635d878b4f1461042f578063714c53981461046c578063715018a61461049757806380c8d690146104ae576101e2565b80633cfc60c5146103635780634e1273f4146103a057806351dba2f0146103dd57806355f804b314610406576101e2565b80631baf4952116101b65780631baf4952146102ba5780632a55205a146102e55780632eb2c2d6146103235780633ccfd60b1461034c576101e2565b8062fdd58e146101e757806301ffc9a7146102245780630e89341c146102615780631b2ef1ca1461029e575b600080fd5b3480156101f357600080fd5b5061020e60048036038101906102099190613104565b610797565b60405161021b9190613153565b60405180910390f35b34801561023057600080fd5b5061024b600480360381019061024691906131c6565b61085f565b604051610258919061320e565b60405180910390f35b34801561026d57600080fd5b5061028860048036038101906102839190613229565b6108c1565b60405161029591906132e6565b60405180910390f35b6102b860048036038101906102b39190613308565b610921565b005b3480156102c657600080fd5b506102cf610b2d565b6040516102dc9190613153565b60405180910390f35b3480156102f157600080fd5b5061030c60048036038101906103079190613308565b610b3a565b60405161031a929190613357565b60405180910390f35b34801561032f57600080fd5b5061034a6004803603810190610345919061357d565b610d24565b005b34801561035857600080fd5b50610361610dc5565b005b34801561036f57600080fd5b5061038a60048036038101906103859190613229565b610e82565b6040516103979190613153565b60405180910390f35b3480156103ac57600080fd5b506103c760048036038101906103c2919061370f565b610e9f565b6040516103d49190613845565b60405180910390f35b3480156103e957600080fd5b5061040460048036038101906103ff9190613229565b610fb8565b005b34801561041257600080fd5b5061042d60048036038101906104289190613908565b610fca565b005b34801561043b57600080fd5b5061045660048036038101906104519190613951565b610fe5565b604051610463919061320e565b60405180910390f35b34801561047857600080fd5b5061048161117e565b60405161048e91906132e6565b60405180910390f35b3480156104a357600080fd5b506104ac611210565b005b3480156104ba57600080fd5b506104d560048036038101906104d091906139d5565b611224565b005b3480156104e357600080fd5b506104ec61127f565b6040516104f99190613a28565b60405180910390f35b34801561050e57600080fd5b5061052960048036038101906105249190613a43565b6112a9565b005b34801561053757600080fd5b50610540611301565b60405161054d9190613153565b60405180910390f35b34801561056257600080fd5b5061057d60048036038101906105789190613aaf565b611307565b005b34801561058b57600080fd5b506105a660048036038101906105a19190613229565b61131d565b005b3480156105b457600080fd5b506105bd61132f565b6040516105ca9190613153565b60405180910390f35b3480156105df57600080fd5b506105e8611339565b6040516105f59190613153565b60405180910390f35b34801561060a57600080fd5b5061062560048036038101906106209190613308565b611343565b005b34801561063357600080fd5b5061064e60048036038101906106499190613951565b61146b565b005b34801561065c57600080fd5b5061067760048036038101906106729190613229565b611500565b6040516106849190613153565b60405180910390f35b34801561069957600080fd5b506106b460048036038101906106af9190613aef565b61151d565b6040516106c1919061320e565b60405180910390f35b3480156106d657600080fd5b506106f160048036038101906106ec9190613b2f565b6115b1565b005b3480156106ff57600080fd5b5061071a60048036038101906107159190613bc6565b611652565b005b34801561072857600080fd5b50610743600480360381019061073e9190613bf3565b6116d5565b005b34801561075157600080fd5b5061076c60048036038101906107679190613308565b611717565b005b34801561077a57600080fd5b5061079560048036038101906107909190613951565b61173b565b005b60008073ffffffffffffffffffffffffffffffffffffffff168373ffffffffffffffffffffffffffffffffffffffff1603610807576040517f08c379a00000000000000000000000000000000000000000000000000000000081526004016107fe90613cb8565b60405180910390fd5b60008083815260200190815260200160002060008473ffffffffffffffffffffffffffffffffffffffff1673ffffffffffffffffffffffffffffffffffffffff16815260200190815260200160002054905092915050565b6000632a55205a60e01b827bffffffffffffffffffffffffffffffffffffffffffffffffffffffff191614806108ba575063d9b67a2660e01b827bffffffffffffffffffffffffffffffffffffffffffffffffffffffff1916145b9050919050565b60606000600680546108d290613d07565b9050116108ee576040518060200160405280600081525061091a565b60066108f983611922565b60405160200161090a929190613e58565b6040516020818303038152906040525b9050919050565b610378821115610966576040517f08c379a000000000000000000000000000000000000000000000000000000000815260040161095d90613ef9565b60405180910390fd5b6007600083815260200190815260200160002054341461098557600080fd5b60006109918333610fe5565b9050806109d3576040517f08c379a00000000000000000000000000000000000000000000000000000000081526004016109ca90613f65565b60405180910390fd5b60006109dd61127f565b73ffffffffffffffffffffffffffffffffffffffff1634604051610a0090613fb6565b60006040518083038185875af1925050503d8060008114610a3d576040519150601f19603f3d011682016040523d82523d6000602084013e610a42565b606091505b5050905080610a5057600080fd5b6000836008600087815260200190815260200160002054610a719190613ffa565b9050600a54811115610abc57600a546040517faa423fe0000000000000000000000000000000000000000000000000000000008152600401610ab39190613153565b60405180910390fd5b610ad7338686604051806020016040528060008152506119f0565b610ae085611ba0565b610b0e5760098590806001815401808255809150506001900390600052602060002001600090919091909150555b8060086000878152602001908152602001600020819055505050505050565b6000600980549050905090565b6000806000600460008681526020019081526020016000206040518060400160405290816000820160009054906101000a900473ffffffffffffffffffffffffffffffffffffffff1673ffffffffffffffffffffffffffffffffffffffff1673ffffffffffffffffffffffffffffffffffffffff1681526020016000820160149054906101000a90046bffffffffffffffffffffffff166bffffffffffffffffffffffff166bffffffffffffffffffffffff16815250509050600073ffffffffffffffffffffffffffffffffffffffff16816000015173ffffffffffffffffffffffffffffffffffffffff1603610ccf5760036040518060400160405290816000820160009054906101000a900473ffffffffffffffffffffffffffffffffffffffff1673ffffffffffffffffffffffffffffffffffffffff1673ffffffffffffffffffffffffffffffffffffffff1681526020016000820160149054906101000a90046bffffffffffffffffffffffff166bffffffffffffffffffffffff166bffffffffffffffffffffffff168152505090505b6000610cd9611c02565b6bffffffffffffffffffffffff1682602001516bffffffffffffffffffffffff1686610d05919061402e565b610d0f919061409f565b90508160000151819350935050509250929050565b610d2c611c0c565b73ffffffffffffffffffffffffffffffffffffffff168573ffffffffffffffffffffffffffffffffffffffff161480610d725750610d7185610d6c611c0c565b61151d565b5b610db1576040517f08c379a0000000000000000000000000000000000000000000000000000000008152600401610da890614142565b60405180910390fd5b610dbe8585858585611c14565b5050505050565b610dcd611f35565b600033905060008173ffffffffffffffffffffffffffffffffffffffff1647604051610df890613fb6565b60006040518083038185875af1925050503d8060008114610e35576040519150601f19603f3d011682016040523d82523d6000602084013e610e3a565b606091505b5050905080610e7e576040517f08c379a0000000000000000000000000000000000000000000000000000000008152600401610e75906141ae565b60405180910390fd5b5050565b600060086000838152602001908152602001600020549050919050565b60608151835114610ee5576040517f08c379a0000000000000000000000000000000000000000000000000000000008152600401610edc90614240565b60405180910390fd5b6000835167ffffffffffffffff811115610f0257610f01613385565b5b604051908082528060200260200182016040528015610f305781602001602082028036833780820191505090505b50905060005b8451811015610fad57610f7d858281518110610f5557610f54614260565b5b6020026020010151858381518110610f7057610f6f614260565b5b6020026020010151610797565b828281518110610f9057610f8f614260565b5b60200260200101818152505080610fa69061428f565b9050610f36565b508091505092915050565b610fc0611f35565b80600c8190555050565b610fd2611f35565b8060069081610fe1919061446e565b5050565b60008073ffffffffffffffffffffffffffffffffffffffff168273ffffffffffffffffffffffffffffffffffffffff1603611055576040517f08c379a000000000000000000000000000000000000000000000000000000000815260040161104c9061458c565b60405180910390fd5b600080600b60008681526020019081526020016000208054806020026020016040519081016040528092919081815260200182805480156110eb57602002820191906000526020600020905b8160009054906101000a900473ffffffffffffffffffffffffffffffffffffffff1673ffffffffffffffffffffffffffffffffffffffff16815260200190600101908083116110a1575b505050505090506000815111156111735760005b8151811015611171578473ffffffffffffffffffffffffffffffffffffffff1682828151811061113257611131614260565b5b602002602001015173ffffffffffffffffffffffffffffffffffffffff160361115e5760019250611171565b80806111699061428f565b9150506110ff565b505b819250505092915050565b60606006805461118d90613d07565b80601f01602080910402602001604051908101604052809291908181526020018280546111b990613d07565b80156112065780601f106111db57610100808354040283529160200191611206565b820191906000526020600020905b8154815290600101906020018083116111e957829003601f168201915b5050505050905090565b611218611f35565b6112226000611fb3565b565b61122c611f35565b600073ffffffffffffffffffffffffffffffffffffffff168273ffffffffffffffffffffffffffffffffffffffff160361126e5761126983612079565b61127a565b6112798383836120d8565b5b505050565b6000600560009054906101000a900473ffffffffffffffffffffffffffffffffffffffff16905090565b6112b1611f35565b600073ffffffffffffffffffffffffffffffffffffffff168273ffffffffffffffffffffffffffffffffffffffff16036112f2576112ed61227f565b6112fd565b6112fc82826122cc565b5b5050565b61037881565b611319611312611c0c565b8383612461565b5050565b611325611f35565b80600a8190555050565b6000600a54905090565b6000600c54905090565b61134b611f35565b610378821115611390576040517f08c379a000000000000000000000000000000000000000000000000000000000815260040161138790613ef9565b60405180910390fd5b60008160086000858152602001908152602001600020546113b19190613ffa565b9050600a548111156113fc57600a546040517faa423fe00000000000000000000000000000000000000000000000000000000081526004016113f39190613153565b60405180910390fd5b611417338484604051806020016040528060008152506119f0565b61142083611ba0565b61144e5760098390806001815401808255809150506001900390600052602060002001600090919091909150555b806008600085815260200190815260200160002081905550505050565b611473611f35565b600061147f8383610fe5565b9050806114fb57600b6000848152602001908152602001600020829080600181540180825580915050600190039060005260206000200160009091909190916101000a81548173ffffffffffffffffffffffffffffffffffffffff021916908373ffffffffffffffffffffffffffffffffffffffff1602179055505b505050565b600060076000838152602001908152602001600020549050919050565b6000600160008473ffffffffffffffffffffffffffffffffffffffff1673ffffffffffffffffffffffffffffffffffffffff16815260200190815260200160002060008373ffffffffffffffffffffffffffffffffffffffff1673ffffffffffffffffffffffffffffffffffffffff16815260200190815260200160002060009054906101000a900460ff16905092915050565b6115b9611c0c565b73ffffffffffffffffffffffffffffffffffffffff168573ffffffffffffffffffffffffffffffffffffffff1614806115ff57506115fe856115f9611c0c565b61151d565b5b61163e576040517f08c379a000000000000000000000000000000000000000000000000000000000815260040161163590614142565b60405180910390fd5b61164b85858585856125cd565b5050505050565b61165a611f35565b600073ffffffffffffffffffffffffffffffffffffffff168173ffffffffffffffffffffffffffffffffffffffff16036116c9576040517f08c379a00000000000000000000000000000000000000000000000000000000081526004016116c09061461e565b60405180910390fd5b6116d281611fb3565b50565b6116dd611f35565b6116e8838383612868565b8060086000848152602001908152602001600020600082825461170b919061463e565b92505081905550505050565b61171f611f35565b8060076000848152602001908152602001600020819055505050565b611743611f35565b600073ffffffffffffffffffffffffffffffffffffffff168173ffffffffffffffffffffffffffffffffffffffff16036117b2576040517f08c379a00000000000000000000000000000000000000000000000000000000081526004016117a99061458c565b60405180910390fd5b6000600b600084815260200190815260200160002080548060200260200160405190810160405280929190818152602001828054801561184757602002820191906000526020600020905b8160009054906101000a900473ffffffffffffffffffffffffffffffffffffffff1673ffffffffffffffffffffffffffffffffffffffff16815260200190600101908083116117fd575b5050505050905060008151111561191d5760005b815181101561191b578273ffffffffffffffffffffffffffffffffffffffff1682828151811061188e5761188d614260565b5b602002602001015173ffffffffffffffffffffffffffffffffffffffff160361190857600b600085815260200190815260200160002081815481106118d6576118d5614260565b5b9060005260206000200160006101000a81549073ffffffffffffffffffffffffffffffffffffffff021916905561191b565b80806119139061428f565b91505061185b565b505b505050565b60606000600161193184612aae565b01905060008167ffffffffffffffff8111156119505761194f613385565b5b6040519080825280601f01601f1916602001820160405280156119825781602001600182028036833780820191505090505b509050600082602001820190505b6001156119e5578080600190039150507f3031323334353637383961626364656600000000000000000000000000000000600a86061a8153600a85816119d9576119d8614070565b5b04945060008503611990575b819350505050919050565b600073ffffffffffffffffffffffffffffffffffffffff168473ffffffffffffffffffffffffffffffffffffffff1603611a5f576040517f08c379a0000000000000000000000000000000000000000000000000000000008152600401611a56906146e4565b60405180910390fd5b6000611a69611c0c565b90506000611a7685612c01565b90506000611a8385612c01565b9050611a9483600089858589612c7b565b8460008088815260200190815260200160002060008973ffffffffffffffffffffffffffffffffffffffff1673ffffffffffffffffffffffffffffffffffffffff1681526020019081526020016000206000828254611af39190613ffa565b925050819055508673ffffffffffffffffffffffffffffffffffffffff16600073ffffffffffffffffffffffffffffffffffffffff168473ffffffffffffffffffffffffffffffffffffffff167fc3d58168c5ae7397731d063d5bbf3d657854427343f4c083240f7aacaa2d0f628989604051611b71929190614704565b60405180910390a4611b8883600089858589612c83565b611b9783600089898989612c8b565b50505050505050565b600080600090505b600980549050811015611bf7578260098281548110611bca57611bc9614260565b5b906000526020600020015403611be4576001915050611bfd565b8080611bef9061428f565b915050611ba8565b50600090505b919050565b6000612710905090565b600033905090565b8151835114611c58576040517f08c379a0000000000000000000000000000000000000000000000000000000008152600401611c4f9061479f565b60405180910390fd5b600073ffffffffffffffffffffffffffffffffffffffff168473ffffffffffffffffffffffffffffffffffffffff1603611cc7576040517f08c379a0000000000000000000000000000000000000000000000000000000008152600401611cbe90614831565b60405180910390fd5b6000611cd1611c0c565b9050611ce1818787878787612c7b565b60005b8451811015611e92576000858281518110611d0257611d01614260565b5b602002602001015190506000858381518110611d2157611d20614260565b5b60200260200101519050600080600084815260200190815260200160002060008b73ffffffffffffffffffffffffffffffffffffffff1673ffffffffffffffffffffffffffffffffffffffff16815260200190815260200160002054905081811015611dc2576040517f08c379a0000000000000000000000000000000000000000000000000000000008152600401611db9906148c3565b60405180910390fd5b81810360008085815260200190815260200160002060008c73ffffffffffffffffffffffffffffffffffffffff1673ffffffffffffffffffffffffffffffffffffffff168152602001908152602001600020819055508160008085815260200190815260200160002060008b73ffffffffffffffffffffffffffffffffffffffff1673ffffffffffffffffffffffffffffffffffffffff1681526020019081526020016000206000828254611e779190613ffa565b9250508190555050505080611e8b9061428f565b9050611ce4565b508473ffffffffffffffffffffffffffffffffffffffff168673ffffffffffffffffffffffffffffffffffffffff168273ffffffffffffffffffffffffffffffffffffffff167f4a39dc06d4c0dbc64b70af90fd698a233a518aa5d07e595d983b8c0526c8f7fb8787604051611f099291906148e3565b60405180910390a4611f1f818787878787612c83565b611f2d818787878787612e62565b505050505050565b611f3d611c0c565b73ffffffffffffffffffffffffffffffffffffffff16611f5b61127f565b73ffffffffffffffffffffffffffffffffffffffff1614611fb1576040517f08c379a0000000000000000000000000000000000000000000000000000000008152600401611fa890614966565b60405180910390fd5b565b6000600560009054906101000a900473ffffffffffffffffffffffffffffffffffffffff16905081600560006101000a81548173ffffffffffffffffffffffffffffffffffffffff021916908373ffffffffffffffffffffffffffffffffffffffff1602179055508173ffffffffffffffffffffffffffffffffffffffff168173ffffffffffffffffffffffffffffffffffffffff167f8be0079c531659141344cd1fd0a4f28419497f9722a3daafe3b4186f6b6457e060405160405180910390a35050565b60046000828152602001908152602001600020600080820160006101000a81549073ffffffffffffffffffffffffffffffffffffffff02191690556000820160146101000a8154906bffffffffffffffffffffffff0219169055505050565b6120e0611c02565b6bffffffffffffffffffffffff16816bffffffffffffffffffffffff16111561213e576040517f08c379a0000000000000000000000000000000000000000000000000000000008152600401612135906149f8565b60405180910390fd5b600073ffffffffffffffffffffffffffffffffffffffff168273ffffffffffffffffffffffffffffffffffffffff16036121ad576040517f08c379a00000000000000000000000000000000000000000000000000000000081526004016121a490614a64565b60405180910390fd5b60405180604001604052808373ffffffffffffffffffffffffffffffffffffffff168152602001826bffffffffffffffffffffffff168152506004600085815260200190815260200160002060008201518160000160006101000a81548173ffffffffffffffffffffffffffffffffffffffff021916908373ffffffffffffffffffffffffffffffffffffffff16021790555060208201518160000160146101000a8154816bffffffffffffffffffffffff02191690836bffffffffffffffffffffffff160217905550905050505050565b6003600080820160006101000a81549073ffffffffffffffffffffffffffffffffffffffff02191690556000820160146101000a8154906bffffffffffffffffffffffff02191690555050565b6122d4611c02565b6bffffffffffffffffffffffff16816bffffffffffffffffffffffff161115612332576040517f08c379a0000000000000000000000000000000000000000000000000000000008152600401612329906149f8565b60405180910390fd5b600073ffffffffffffffffffffffffffffffffffffffff168273ffffffffffffffffffffffffffffffffffffffff16036123a1576040517f08c379a000000000000000000000000000000000000000000000000000000000815260040161239890614ad0565b60405180910390fd5b60405180604001604052808373ffffffffffffffffffffffffffffffffffffffff168152602001826bffffffffffffffffffffffff16815250600360008201518160000160006101000a81548173ffffffffffffffffffffffffffffffffffffffff021916908373ffffffffffffffffffffffffffffffffffffffff16021790555060208201518160000160146101000a8154816bffffffffffffffffffffffff02191690836bffffffffffffffffffffffff1602179055509050505050565b8173ffffffffffffffffffffffffffffffffffffffff168373ffffffffffffffffffffffffffffffffffffffff16036124cf576040517f08c379a00000000000000000000000000000000000000000000000000000000081526004016124c690614b62565b60405180910390fd5b80600160008573ffffffffffffffffffffffffffffffffffffffff1673ffffffffffffffffffffffffffffffffffffffff16815260200190815260200160002060008473ffffffffffffffffffffffffffffffffffffffff1673ffffffffffffffffffffffffffffffffffffffff16815260200190815260200160002060006101000a81548160ff0219169083151502179055508173ffffffffffffffffffffffffffffffffffffffff168373ffffffffffffffffffffffffffffffffffffffff167f17307eab39ab6107e8899845ad3d59bd9653f200f220920489ca2b5937696c31836040516125c0919061320e565b60405180910390a3505050565b600073ffffffffffffffffffffffffffffffffffffffff168473ffffffffffffffffffffffffffffffffffffffff160361263c576040517f08c379a000000000000000000000000000000000000000000000000000000000815260040161263390614831565b60405180910390fd5b6000612646611c0c565b9050600061265385612c01565b9050600061266085612c01565b9050612670838989858589612c7b565b600080600088815260200190815260200160002060008a73ffffffffffffffffffffffffffffffffffffffff1673ffffffffffffffffffffffffffffffffffffffff16815260200190815260200160002054905085811015612707576040517f08c379a00000000000000000000000000000000000000000000000000000000081526004016126fe906148c3565b60405180910390fd5b85810360008089815260200190815260200160002060008b73ffffffffffffffffffffffffffffffffffffffff1673ffffffffffffffffffffffffffffffffffffffff168152602001908152602001600020819055508560008089815260200190815260200160002060008a73ffffffffffffffffffffffffffffffffffffffff1673ffffffffffffffffffffffffffffffffffffffff16815260200190815260200160002060008282546127bc9190613ffa565b925050819055508773ffffffffffffffffffffffffffffffffffffffff168973ffffffffffffffffffffffffffffffffffffffff168573ffffffffffffffffffffffffffffffffffffffff167fc3d58168c5ae7397731d063d5bbf3d657854427343f4c083240f7aacaa2d0f628a8a604051612839929190614704565b60405180910390a461284f848a8a86868a612c83565b61285d848a8a8a8a8a612c8b565b505050505050505050565b600073ffffffffffffffffffffffffffffffffffffffff168373ffffffffffffffffffffffffffffffffffffffff16036128d7576040517f08c379a00000000000000000000000000000000000000000000000000000000081526004016128ce90614bf4565b60405180910390fd5b60006128e1611c0c565b905060006128ee84612c01565b905060006128fb84612c01565b905061291b83876000858560405180602001604052806000815250612c7b565b600080600087815260200190815260200160002060008873ffffffffffffffffffffffffffffffffffffffff1673ffffffffffffffffffffffffffffffffffffffff168152602001908152602001600020549050848110156129b2576040517f08c379a00000000000000000000000000000000000000000000000000000000081526004016129a990614c86565b60405180910390fd5b84810360008088815260200190815260200160002060008973ffffffffffffffffffffffffffffffffffffffff1673ffffffffffffffffffffffffffffffffffffffff16815260200190815260200160002081905550600073ffffffffffffffffffffffffffffffffffffffff168773ffffffffffffffffffffffffffffffffffffffff168573ffffffffffffffffffffffffffffffffffffffff167fc3d58168c5ae7397731d063d5bbf3d657854427343f4c083240f7aacaa2d0f628989604051612a7f929190614704565b60405180910390a4612aa584886000868660405180602001604052806000815250612c83565b50505050505050565b600080600090507a184f03e93ff9f4daa797ed6e38ed64bf6a1f0100000000000000008310612b0c577a184f03e93ff9f4daa797ed6e38ed64bf6a1f0100000000000000008381612b0257612b01614070565b5b0492506040810190505b6d04ee2d6d415b85acef81000000008310612b49576d04ee2d6d415b85acef81000000008381612b3f57612b3e614070565b5b0492506020810190505b662386f26fc100008310612b7857662386f26fc100008381612b6e57612b6d614070565b5b0492506010810190505b6305f5e1008310612ba1576305f5e1008381612b9757612b96614070565b5b0492506008810190505b6127108310612bc6576127108381612bbc57612bbb614070565b5b0492506004810190505b60648310612be95760648381612bdf57612bde614070565b5b0492506002810190505b600a8310612bf8576001810190505b80915050919050565b60606000600167ffffffffffffffff811115612c2057612c1f613385565b5b604051908082528060200260200182016040528015612c4e5781602001602082028036833780820191505090505b5090508281600081518110612c6657612c65614260565b5b60200260200101818152505080915050919050565b505050505050565b505050505050565b612caa8473ffffffffffffffffffffffffffffffffffffffff16613039565b15612e5a578373ffffffffffffffffffffffffffffffffffffffff1663f23a6e6187878686866040518663ffffffff1660e01b8152600401612cf0959493929190614cfb565b6020604051808303816000875af1925050508015612d2c57506040513d601f19601f82011682018060405250810190612d299190614d6a565b60015b612dd157612d38614da4565b806308c379a003612d945750612d4c614dc6565b80612d575750612d96565b806040517f08c379a0000000000000000000000000000000000000000000000000000000008152600401612d8b91906132e6565b60405180910390fd5b505b6040517f08c379a0000000000000000000000000000000000000000000000000000000008152600401612dc890614ec8565b60405180910390fd5b63f23a6e6160e01b7bffffffffffffffffffffffffffffffffffffffffffffffffffffffff1916817bffffffffffffffffffffffffffffffffffffffffffffffffffffffff191614612e58576040517f08c379a0000000000000000000000000000000000000000000000000000000008152600401612e4f90614f5a565b60405180910390fd5b505b505050505050565b612e818473ffffffffffffffffffffffffffffffffffffffff16613039565b15613031578373ffffffffffffffffffffffffffffffffffffffff1663bc197c8187878686866040518663ffffffff1660e01b8152600401612ec7959493929190614f7a565b6020604051808303816000875af1925050508015612f0357506040513d601f19601f82011682018060405250810190612f009190614d6a565b60015b612fa857612f0f614da4565b806308c379a003612f6b5750612f23614dc6565b80612f2e5750612f6d565b806040517f08c379a0000000000000000000000000000000000000000000000000000000008152600401612f6291906132e6565b60405180910390fd5b505b6040517f08c379a0000000000000000000000000000000000000000000000000000000008152600401612f9f90614ec8565b60405180910390fd5b63bc197c8160e01b7bffffffffffffffffffffffffffffffffffffffffffffffffffffffff1916817bffffffffffffffffffffffffffffffffffffffffffffffffffffffff19161461302f576040517f08c379a000000000000000000000000000000000000000000000000000000000815260040161302690614f5a565b60405180910390fd5b505b505050505050565b6000808273ffffffffffffffffffffffffffffffffffffffff163b119050919050565b6000604051905090565b600080fd5b600080fd5b600073ffffffffffffffffffffffffffffffffffffffff82169050919050565b600061309b82613070565b9050919050565b6130ab81613090565b81146130b657600080fd5b50565b6000813590506130c8816130a2565b92915050565b6000819050919050565b6130e1816130ce565b81146130ec57600080fd5b50565b6000813590506130fe816130d8565b92915050565b6000806040838503121561311b5761311a613066565b5b6000613129858286016130b9565b925050602061313a858286016130ef565b9150509250929050565b61314d816130ce565b82525050565b60006020820190506131686000830184613144565b92915050565b60007fffffffff0000000000000000000000000000000000000000000000000000000082169050919050565b6131a38161316e565b81146131ae57600080fd5b50565b6000813590506131c08161319a565b92915050565b6000602082840312156131dc576131db613066565b5b60006131ea848285016131b1565b91505092915050565b60008115159050919050565b613208816131f3565b82525050565b600060208201905061322360008301846131ff565b92915050565b60006020828403121561323f5761323e613066565b5b600061324d848285016130ef565b91505092915050565b600081519050919050565b600082825260208201905092915050565b60005b83811015613290578082015181840152602081019050613275565b60008484015250505050565b6000601f19601f8301169050919050565b60006132b882613256565b6132c28185613261565b93506132d2818560208601613272565b6132db8161329c565b840191505092915050565b6000602082019050818103600083015261330081846132ad565b905092915050565b6000806040838503121561331f5761331e613066565b5b600061332d858286016130ef565b925050602061333e858286016130ef565b9150509250929050565b61335181613090565b82525050565b600060408201905061336c6000830185613348565b6133796020830184613144565b9392505050565b600080fd5b7f4e487b7100000000000000000000000000000000000000000000000000000000600052604160045260246000fd5b6133bd8261329c565b810181811067ffffffffffffffff821117156133dc576133db613385565b5b80604052505050565b60006133ef61305c565b90506133fb82826133b4565b919050565b600067ffffffffffffffff82111561341b5761341a613385565b5b602082029050602081019050919050565b600080fd5b600061344461343f84613400565b6133e5565b905080838252602082019050602084028301858111156134675761346661342c565b5b835b81811015613490578061347c88826130ef565b845260208401935050602081019050613469565b5050509392505050565b600082601f8301126134af576134ae613380565b5b81356134bf848260208601613431565b91505092915050565b600080fd5b600067ffffffffffffffff8211156134e8576134e7613385565b5b6134f18261329c565b9050602081019050919050565b82818337600083830152505050565b600061352061351b846134cd565b6133e5565b90508281526020810184848401111561353c5761353b6134c8565b5b6135478482856134fe565b509392505050565b600082601f83011261356457613563613380565b5b813561357484826020860161350d565b91505092915050565b600080600080600060a0868803121561359957613598613066565b5b60006135a7888289016130b9565b95505060206135b8888289016130b9565b945050604086013567ffffffffffffffff8111156135d9576135d861306b565b5b6135e58882890161349a565b935050606086013567ffffffffffffffff8111156136065761360561306b565b5b6136128882890161349a565b925050608086013567ffffffffffffffff8111156136335761363261306b565b5b61363f8882890161354f565b9150509295509295909350565b600067ffffffffffffffff82111561366757613666613385565b5b602082029050602081019050919050565b600061368b6136868461364c565b6133e5565b905080838252602082019050602084028301858111156136ae576136ad61342c565b5b835b818110156136d757806136c388826130b9565b8452602084019350506020810190506136b0565b5050509392505050565b600082601f8301126136f6576136f5613380565b5b8135613706848260208601613678565b91505092915050565b6000806040838503121561372657613725613066565b5b600083013567ffffffffffffffff8111156137445761374361306b565b5b613750858286016136e1565b925050602083013567ffffffffffffffff8111156137715761377061306b565b5b61377d8582860161349a565b9150509250929050565b600081519050919050565b600082825260208201905092915050565b6000819050602082019050919050565b6137bc816130ce565b82525050565b60006137ce83836137b3565b60208301905092915050565b6000602082019050919050565b60006137f282613787565b6137fc8185613792565b9350613807836137a3565b8060005b8381101561383857815161381f88826137c2565b975061382a836137da565b92505060018101905061380b565b5085935050505092915050565b6000602082019050818103600083015261385f81846137e7565b905092915050565b600067ffffffffffffffff82111561388257613881613385565b5b61388b8261329c565b9050602081019050919050565b60006138ab6138a684613867565b6133e5565b9050828152602081018484840111156138c7576138c66134c8565b5b6138d28482856134fe565b509392505050565b600082601f8301126138ef576138ee613380565b5b81356138ff848260208601613898565b91505092915050565b60006020828403121561391e5761391d613066565b5b600082013567ffffffffffffffff81111561393c5761393b61306b565b5b613948848285016138da565b91505092915050565b6000806040838503121561396857613967613066565b5b6000613976858286016130ef565b9250506020613987858286016130b9565b9150509250929050565b60006bffffffffffffffffffffffff82169050919050565b6139b281613991565b81146139bd57600080fd5b50565b6000813590506139cf816139a9565b92915050565b6000806000606084860312156139ee576139ed613066565b5b60006139fc868287016130ef565b9350506020613a0d868287016130b9565b9250506040613a1e868287016139c0565b9150509250925092565b6000602082019050613a3d6000830184613348565b92915050565b60008060408385031215613a5a57613a59613066565b5b6000613a68858286016130b9565b9250506020613a79858286016139c0565b9150509250929050565b613a8c816131f3565b8114613a9757600080fd5b50565b600081359050613aa981613a83565b92915050565b60008060408385031215613ac657613ac5613066565b5b6000613ad4858286016130b9565b9250506020613ae585828601613a9a565b9150509250929050565b60008060408385031215613b0657613b05613066565b5b6000613b14858286016130b9565b9250506020613b25858286016130b9565b9150509250929050565b600080600080600060a08688031215613b4b57613b4a613066565b5b6000613b59888289016130b9565b9550506020613b6a888289016130b9565b9450506040613b7b888289016130ef565b9350506060613b8c888289016130ef565b925050608086013567ffffffffffffffff811115613bad57613bac61306b565b5b613bb98882890161354f565b9150509295509295909350565b600060208284031215613bdc57613bdb613066565b5b6000613bea848285016130b9565b91505092915050565b600080600060608486031215613c0c57613c0b613066565b5b6000613c1a868287016130b9565b9350506020613c2b868287016130ef565b9250506040613c3c868287016130ef565b9150509250925092565b7f455243313135353a2061646472657373207a65726f206973206e6f742061207660008201527f616c6964206f776e657200000000000000000000000000000000000000000000602082015250565b6000613ca2602a83613261565b9150613cad82613c46565b604082019050919050565b60006020820190508181036000830152613cd181613c95565b9050919050565b7f4e487b7100000000000000000000000000000000000000000000000000000000600052602260045260246000fd5b60006002820490506001821680613d1f57607f821691505b602082108103613d3257613d31613cd8565b5b50919050565b600081905092915050565b60008190508160005260206000209050919050565b60008154613d6581613d07565b613d6f8186613d38565b94506001821660008114613d8a5760018114613d9f57613dd2565b60ff1983168652811515820286019350613dd2565b613da885613d43565b60005b83811015613dca57815481890152600182019150602081019050613dab565b838801955050505b50505092915050565b6000613de682613256565b613df08185613d38565b9350613e00818560208601613272565b80840191505092915050565b7f2e6a736f6e000000000000000000000000000000000000000000000000000000600082015250565b6000613e42600583613d38565b9150613e4d82613e0c565b600582019050919050565b6000613e648285613d58565b9150613e708284613ddb565b9150613e7b82613e35565b91508190509392505050565b7f544f54414c5f535550504c59206d757374206e6f74206265206578636565646560008201527f6400000000000000000000000000000000000000000000000000000000000000602082015250565b6000613ee3602183613261565b9150613eee82613e87565b604082019050919050565b60006020820190508181036000830152613f1281613ed6565b9050919050565b7f77616c6c6574206d75737420626520696e207468652077686974656c69737400600082015250565b6000613f4f601f83613261565b9150613f5a82613f19565b602082019050919050565b60006020820190508181036000830152613f7e81613f42565b9050919050565b600081905092915050565b50565b6000613fa0600083613f85565b9150613fab82613f90565b600082019050919050565b6000613fc182613f93565b9150819050919050565b7f4e487b7100000000000000000000000000000000000000000000000000000000600052601160045260246000fd5b6000614005826130ce565b9150614010836130ce565b925082820190508082111561402857614027613fcb565b5b92915050565b6000614039826130ce565b9150614044836130ce565b9250828202614052816130ce565b9150828204841483151761406957614068613fcb565b5b5092915050565b7f4e487b7100000000000000000000000000000000000000000000000000000000600052601260045260246000fd5b60006140aa826130ce565b91506140b5836130ce565b9250826140c5576140c4614070565b5b828204905092915050565b7f455243313135353a2063616c6c6572206973206e6f7420746f6b656e206f776e60008201527f6572206f7220617070726f766564000000000000000000000000000000000000602082015250565b600061412c602e83613261565b9150614137826140d0565b604082019050919050565b6000602082019050818103600083015261415b8161411f565b9050919050565b7f7769746864726177616c206572726f7200000000000000000000000000000000600082015250565b6000614198601083613261565b91506141a382614162565b602082019050919050565b600060208201905081810360008301526141c78161418b565b9050919050565b7f455243313135353a206163636f756e747320616e6420696473206c656e67746860008201527f206d69736d617463680000000000000000000000000000000000000000000000602082015250565b600061422a602983613261565b9150614235826141ce565b604082019050919050565b600060208201905081810360008301526142598161421d565b9050919050565b7f4e487b7100000000000000000000000000000000000000000000000000000000600052603260045260246000fd5b600061429a826130ce565b91507fffffffffffffffffffffffffffffffffffffffffffffffffffffffffffffffff82036142cc576142cb613fcb565b5b600182019050919050565b60006020601f8301049050919050565b600082821b905092915050565b6000600883026143247fffffffffffffffffffffffffffffffffffffffffffffffffffffffffffffffff826142e7565b61432e86836142e7565b95508019841693508086168417925050509392505050565b6000819050919050565b600061436b614366614361846130ce565b614346565b6130ce565b9050919050565b6000819050919050565b61438583614350565b61439961439182614372565b8484546142f4565b825550505050565b600090565b6143ae6143a1565b6143b981848461437c565b505050565b5b818110156143dd576143d26000826143a6565b6001810190506143bf565b5050565b601f821115614422576143f381613d43565b6143fc846142d7565b8101602085101561440b578190505b61441f614417856142d7565b8301826143be565b50505b505050565b600082821c905092915050565b600061444560001984600802614427565b1980831691505092915050565b600061445e8383614434565b9150826002028217905092915050565b61447782613256565b67ffffffffffffffff8111156144905761448f613385565b5b61449a8254613d07565b6144a58282856143e1565b600060209050601f8311600181146144d857600084156144c6578287015190505b6144d08582614452565b865550614538565b601f1984166144e686613d43565b60005b8281101561450e578489015182556001820191506020850194506020810190506144e9565b8683101561452b5784890151614527601f891682614434565b8355505b6001600288020188555050505b505050505050565b7f61646472657373206d757374206e6f7420626520300000000000000000000000600082015250565b6000614576601583613261565b915061458182614540565b602082019050919050565b600060208201905081810360008301526145a581614569565b9050919050565b7f4f776e61626c653a206e6577206f776e657220697320746865207a65726f206160008201527f6464726573730000000000000000000000000000000000000000000000000000602082015250565b6000614608602683613261565b9150614613826145ac565b604082019050919050565b60006020820190508181036000830152614637816145fb565b9050919050565b6000614649826130ce565b9150614654836130ce565b925082820390508181111561466c5761466b613fcb565b5b92915050565b7f455243313135353a206d696e7420746f20746865207a65726f2061646472657360008201527f7300000000000000000000000000000000000000000000000000000000000000602082015250565b60006146ce602183613261565b91506146d982614672565b604082019050919050565b600060208201905081810360008301526146fd816146c1565b9050919050565b60006040820190506147196000830185613144565b6147266020830184613144565b9392505050565b7f455243313135353a2069647320616e6420616d6f756e7473206c656e6774682060008201527f6d69736d61746368000000000000000000000000000000000000000000000000602082015250565b6000614789602883613261565b91506147948261472d565b604082019050919050565b600060208201905081810360008301526147b88161477c565b9050919050565b7f455243313135353a207472616e7366657220746f20746865207a65726f20616460008201527f6472657373000000000000000000000000000000000000000000000000000000602082015250565b600061481b602583613261565b9150614826826147bf565b604082019050919050565b6000602082019050818103600083015261484a8161480e565b9050919050565b7f455243313135353a20696e73756666696369656e742062616c616e636520666f60008201527f72207472616e7366657200000000000000000000000000000000000000000000602082015250565b60006148ad602a83613261565b91506148b882614851565b604082019050919050565b600060208201905081810360008301526148dc816148a0565b9050919050565b600060408201905081810360008301526148fd81856137e7565b9050818103602083015261491181846137e7565b90509392505050565b7f4f776e61626c653a2063616c6c6572206973206e6f7420746865206f776e6572600082015250565b6000614950602083613261565b915061495b8261491a565b602082019050919050565b6000602082019050818103600083015261497f81614943565b9050919050565b7f455243323938313a20726f79616c7479206665652077696c6c2065786365656460008201527f2073616c65507269636500000000000000000000000000000000000000000000602082015250565b60006149e2602a83613261565b91506149ed82614986565b604082019050919050565b60006020820190508181036000830152614a11816149d5565b9050919050565b7f455243323938313a20496e76616c696420706172616d65746572730000000000600082015250565b6000614a4e601b83613261565b9150614a5982614a18565b602082019050919050565b60006020820190508181036000830152614a7d81614a41565b9050919050565b7f455243323938313a20696e76616c696420726563656976657200000000000000600082015250565b6000614aba601983613261565b9150614ac582614a84565b602082019050919050565b60006020820190508181036000830152614ae981614aad565b9050919050565b7f455243313135353a2073657474696e6720617070726f76616c2073746174757360008201527f20666f722073656c660000000000000000000000000000000000000000000000602082015250565b6000614b4c602983613261565b9150614b5782614af0565b604082019050919050565b60006020820190508181036000830152614b7b81614b3f565b9050919050565b7f455243313135353a206275726e2066726f6d20746865207a65726f206164647260008201527f6573730000000000000000000000000000000000000000000000000000000000602082015250565b6000614bde602383613261565b9150614be982614b82565b604082019050919050565b60006020820190508181036000830152614c0d81614bd1565b9050919050565b7f455243313135353a206275726e20616d6f756e7420657863656564732062616c60008201527f616e636500000000000000000000000000000000000000000000000000000000602082015250565b6000614c70602483613261565b9150614c7b82614c14565b604082019050919050565b60006020820190508181036000830152614c9f81614c63565b9050919050565b600081519050919050565b600082825260208201905092915050565b6000614ccd82614ca6565b614cd78185614cb1565b9350614ce7818560208601613272565b614cf08161329c565b840191505092915050565b600060a082019050614d106000830188613348565b614d1d6020830187613348565b614d2a6040830186613144565b614d376060830185613144565b8181036080830152614d498184614cc2565b90509695505050505050565b600081519050614d648161319a565b92915050565b600060208284031215614d8057614d7f613066565b5b6000614d8e84828501614d55565b91505092915050565b60008160e01c9050919050565b600060033d1115614dc35760046000803e614dc0600051614d97565b90505b90565b600060443d10614e5357614dd861305c565b60043d036004823e80513d602482011167ffffffffffffffff82111715614e00575050614e53565b808201805167ffffffffffffffff811115614e1e5750505050614e53565b80602083010160043d038501811115614e3b575050505050614e53565b614e4a826020018501866133b4565b82955050505050505b90565b7f455243313135353a207472616e7366657220746f206e6f6e2d4552433131353560008201527f526563656976657220696d706c656d656e746572000000000000000000000000602082015250565b6000614eb2603483613261565b9150614ebd82614e56565b604082019050919050565b60006020820190508181036000830152614ee181614ea5565b9050919050565b7f455243313135353a204552433131353552656365697665722072656a6563746560008201527f6420746f6b656e73000000000000000000000000000000000000000000000000602082015250565b6000614f44602883613261565b9150614f4f82614ee8565b604082019050919050565b60006020820190508181036000830152614f7381614f37565b9050919050565b600060a082019050614f8f6000830188613348565b614f9c6020830187613348565b8181036040830152614fae81866137e7565b90508181036060830152614fc281856137e7565b90508181036080830152614fd68184614cc2565b9050969550505050505056fea2646970667358221220aeec5ff2d3ffea78adbe49b4cff2e953733b84b76d2d493fb12d65c09f8b4a0864736f6c63430008120033",
  "linkReferences": {},
  "deployedLinkReferences": {}
}